:020000040800F2
:100000000050002069060008F1050008F905000805
:10001000010600080906000811060008000000009B
:1000200000000000000000000000000019060008A9
:100030002506000800000000310600083D06000803
:10004000B1060008B1060008B1060008B1060008B4
:10005000B1060008B1060008B1060008B1060008A4
:10006000B1060008B1060008B1060008B106000894
:10007000B1060008B1060008B1060008B106000884
:10008000B1060008B1060008B1060008B106000874
:10009000B1060008B1060008B1060008B106000864
:1000A000B1060008B1060008B1060008B106000854
:1000B00049060008B1060008B1060008B1060008AC
:1000C000B1060008B1060008B1060008B106000834
:1000D000B1060008B1060008B1060008B106000824
:1000E000B1060008B1060008B106000800000000D3
:1000F0000000000000000000000000000000000000
:0C01000000000000000000005FF808F1A3
:10010C0010B5054C237833B9044B13B10448AFF345
:10011C0000800123237010BD10000020000000009F
:10012C00F41D000808B5034B1BB103490348AFF39A
:10013C00008008BD0000000014000020F41D000821
:10014C0080B582B000AF00F0AFFA00F021F900F0FA
:10015C0093F900F059F901224FF40051474800F08F
:10016C00D2FF474B1B687B607B68B3F1FF3F05D028
:10017C007B68072B02D87B68032B08D8414B0422E1
:10018C001A60404B1B68184600F0DAF802E03D4A52
:10019C007B68136001213C4800F09EFF0346002B56
:1001AC0012D140F6B83000F0E1FA0121364800F0E7
:1001BC0093FF0346002B07D1324B04221A60314BBC
:1001CC001B68184600F0BCF8304801F0FBFB01211D
:1001DC002D4800F081FF0346002B29D12C4B1B78B6
:1001EC00002B0BD12A4B01221A7000F0B5FA0346F2
:1001FC00284A1360284B00221A70E8E7264B1B781C
:10020C00002BE4D100F0A8FA0246224B1B68D31A4B
:10021C0040F6B8329342DAD91A4B04221A60194BC1
:10022C001B68184600F08CF81B4B01221A70CEE7A5
:10023C00174B1B78002BCAD0174B1B78002B19D1EE
:10024C0000F08AFA0246134B1B68D31A322B11D9D1
:10025C000C4B1B68062B05D80A4B1B680133094A4B
:10026C00136002E0074B04221A60064B1B68184609
:10027C0000F066F8064B00221A70A8E70010014047
:10028C0000FC000800000020000801402C000020A9
:10029C007D000020800000208400002080B582B00A
:1002AC0000AF78607B681B68B3F1804F39D11F4B6E
:1002BC001B78002B18D001224FF400511C4800F081
:1002CC0022FF1C4B1B6801331A4A1360194B1B6825
:1002DC00092B26D9154B00221A70164B00221A60D6
:1002EC00154B00221A601CE04FF40051104800F02E
:1002FC0022FF114B1B6801330F4A13600F4B1B6815
:10030C005A000D4B1B689A420BD8084B01221A70ED
:10031C00084B00221A6001224FF40051044800F0EF
:10032C00F2FE00BF0837BD4680BD00BF7C00002038
:10033C000010014078000020740000200000002014
:10034C00B0B588B000AF786000F0B2FB0023FB6062
:10035C0000233B610D4BBB610123FB6107F10C02D8
:10036C0007F110031146184600F08AFC7B68002246
:10037C001C46154622462B460449022000F028FB59
:10038C0000F0BCFB00BF2037BD46B0BD00FC000830
:10039C0080B590B000AF07F1180328220021184651
:1003AC0001F0F6FC3B1D00221A605A609A60DA607C
:1003BC001A610223BB610123BB621023FB62002381
:1003CC007B6307F11803184600F0CEFE0346002BA2
:1003DC0001D000BFFDE70F237B600023BB6000232F
:1003EC00FB6000233B6100237B613B1D0021184611
:1003FC0001F03CF90346002B01D000BFFDE700BF24
:10040C004037BD4680BD000080B582B000AF184BB0
:10041C00DB69174A43F00103D361154BDB6903F029
:10042C0001037B607B68134B4FF080421A60114BC9
:10043C0041F63F725A600F4B00229A600D4B40F20E
:10044C00F312DA600B4B00221A610A4B00229A61FC
:10045C00084801F067FA002200211C2000F081FA04
:10046C001C2000F09AFA00BF0837BD4680BD00BFC3
:10047C00001002402C00002080B586B000AF07F1C0
:10048C00080300221A605A609A60DA60274B9B6955
:10049C00264A43F010039361244B9B6903F010032D
:1004AC007B607B68214B9B69204A43F0040393617A
:1004BC001E4B9B6903F004033B603B6801224FF425
:1004CC0000511B4800F01FFE4FF40053BB6001238A
:1004DC00FB6000233B6102237B6107F10803194693
:1004EC00134800F075FC0123BB600023FB60012363
:1004FC003B6107F1080319460E4800F069FC002225
:10050C0002210C4800F0FFFD0223BB600123FB60BD
:10051C0000233B6102237B6107F108031946054860
:10052C0000F056FC00BF1837BD4680BD00100240DD
:10053C00001001400008014080B485B000AF154B9D
:10054C009B69144A43F001039361124B9B6903F0BE
:10055C000103BB60BB680F4BDB690E4A43F0805351
:10056C00D3610C4BDB6903F080537B607B680A4BD7
:10057C005B68FB60FB6823F0E063FB60FB6843F0A7
:10058C000073FB60044AFB68536000BF1437BD4620
:10059C0080BC7047001002400000014080B584B060
:1005AC0000AF78607B681B68B3F1804F13D10C4BA4
:1005BC00DB690B4A43F00103D361094BDB6903F0A0
:1005CC000103FB60FB68002200211C2000F0C9F92C
:1005DC001C2000F0E2F900BF1037BD4680BD00BF03
:1005EC000010024080B400AF00BFFDE780B400AF44
:1005FC0000BFFDE780B400AF00BFFDE780B400AFE3
:10060C0000BFFDE780B400AF00BFFDE780B400AFD2
:10061C0000BFBD4680BC704780B400AF00BFBD4674
:10062C0080BC704780B400AF00BFBD4680BC704733
:10063C0080B500AF00F07EF800BF80BD80B500AF84
:10064C00024801F011FA00BF80BD00BF2C00002051
:10065C0080B400AF00BFBD4680BC7047FFF7F8FF09
:10066C000B480C490C4A002302E0D458C450043304
:10067C00C4188C42F9D3094A094C002301E01360D9
:10068C000432A242FBD301F08BFBFFF759FD7047FC
:10069C000000002010000020381E00081000002070
:1006AC00B0000020FEE7000080B500AF084B1B68CF
:1006BC00074A43F010031360032000F047F90F20A2
:1006CC0000F008F8FFF738FF0023184680BD00BF84
:1006DC000020024080B582B000AF7860124B1A68DF
:1006EC00124B1B7819464FF47A73B3FBF1F3B2FB40
:1006FC00F3F3184600F05FF90346002B01D00123F9
:10070C000EE07B680F2B0AD8002279684FF0FF307F
:10071C0000F027F9064A7B681360002300E00123F0
:10072C0018460837BD4680BD040000200C00002090
:10073C000800002080B400AF054B1B781A46054B0F
:10074C001B681344034A136000BFBD4680BC70474E
:10075C000C0000208800002080B400AF024B1B6806
:10076C001846BD4680BC70478800002080B584B018
:10077C0000AF7860FFF7F0FFB8607B68FB60FB6848
:10078C00B3F1FF3F05D00A4B1B781A46FB681344A4
:10079C00FB6000BFFFF7E0FF0246BB68D31AFA68A4
:1007AC009A42F7D800BF00BF1037BD4680BD00BFCE
:1007BC000C00002080B485B000AF78607B6803F03B
:1007CC000703FB600C4BDB68BB60BA684FF6FF039A
:1007DC001340BB60FB681A02BB68134343F0BF6352
:1007EC0043F40033BB60044ABB68D36000BF1437CA
:1007FC00BD4680BC704700BF00ED00E080B400AF88
:10080C00044BDB681B0A03F007031846BD4680BC8B
:10081C00704700BF00ED00E080B483B000AF03462A
:10082C00FB7197F90730002B0BDBFB7903F01F02F0
:10083C00064997F907305B09012000FA02F241F8EA
:10084C00232000BF0C37BD4680BC704700E100E0A0
:10085C0080B483B000AF03463960FB7197F9073061
:10086C00002B0ADB3B68DAB20C4997F9073012010E
:10087C00D2B20B4483F800230AE03B68DAB2084991
:10088C00FB7903F00F03043B1201D2B20B441A762E
:10089C0000BF0C37BD4680BC704700BF00E100E0D4
:1008AC0000ED00E080B489B000AFF860B9607A6008
:1008BC00FB6803F00703FB61FB69C3F10703042B1F
:1008CC0028BF0423BB61FB690433062B02D9FB69E7
:1008DC00033B00E000237B614FF0FF32BB6902FA5F
:1008EC0003F3DA43BB681A407B699A404FF0FF313F
:1008FC007B6901FA03F3D9437B680B401343184619
:10090C002437BD4680BC704780B582B000AF78609C
:10091C007B68013BB3F1807F01D301230FE00A4ACE
:10092C007B68013B53600F214FF0FF30FFF790FFC6
:10093C00054B00229A60044B07221A6000231846CC
:10094C000837BD4680BD00BF10E000E080B582B026
:10095C0000AF78607868FFF72DFF00BF0837BD4601
:10096C0080BD80B586B000AF0346B9607A60FB737A
:10097C0000237B61FFF742FF78617A68B968786978
:10098C00FFF790FF024697F90F3011461846FFF714
:10099C005FFF00BF1837BD4680BD80B582B000AF89
:1009AC000346FB7197F907301846FFF735FF00BF78
:1009BC000837BD4680BD80B582B000AF78607868DE
:1009CC00FFF7A2FF034618460837BD4680BD00005E
:1009DC00F0B587B000AFF860B960C7E90023012318
:1009EC00FB750023BB7500237B752F4B1B7E012BE6
:1009FC0001D1022354E02C4B01221A764CF25030D8
:100A0C0000F0A8F80346FB75FB7D002B44D1FB6876
:100A1C00012B02D101237B7507E0FB68022B02D16D
:100A2C0002237B7501E004237B750023BB752DE04D
:100A3C00BB7D5A00BB6802EB030CBB7D1901D7E9E7
:100A4C000023C1F12006A1F1200022FA01F403FADF
:100A5C0006F6344323FA00F0044323FA01F5A3B25B
:100A6C001946604600F05AF84CF2503000F072F81B
:100A7C000346FB750D4B1B690C4A23F001031361F4
:100A8C00FB7D002B07D1BB7D0133BB75BA7D7B7D14
:100A9C009A42CDD300E000BF034B00221A76FB7DB7
:100AAC0018461C37BD46F0BD9000002000200240C7
:100ABC0080B483B000AF0023FB710D4B1B6903F0B6
:100ACC008003002B0DD00A4B0A4A5A60084B0A4A85
:100ADC005A60074B1B6903F08003002B01D00123E4
:100AEC00FB71FB7918460C37BD4680BC704700BFC4
:100AFC000020024023016745AB89EFCD80B400AFE5
:100B0C00054B1B69044A43F080031361002318460C
:100B1C00BD4680BC704700BF0020024080B483B04B
:100B2C0000AF78600B467B80084B0022DA61084BE3
:100B3C001B69074A43F0010313617B687A881A80AA
:100B4C0000BF0C37BD4680BC704700BF9000002032
:100B5C000020024080B584B000AF7860FFF7FCFD48
:100B6C00F86010E07B68B3F1FF3F0CD07B68002B82
:100B7C0007D0FFF7F1FD0246FB68D31A7A689A4258
:100B8C0001D2032325E0154BDB6803F00103002B96
:100B9C00E8D1124BDB6803F02003002B02D00F4B83
:100BAC002022DA600D4BDB6803F01003002B0BD115
:100BBC000A4BDB6903F00103002B05D1074BDB6803
:100BCC0003F00403002B03D000F00AF8012300E02B
:100BDC00002318461037BD4680BD00BF00200240E0
:100BEC0080B483B000AF00237B60234BDB6803F041
:100BFC001003002B09D0214BDB6943F002031F4A81
:100C0C00D3617B6843F010037B601B4BDB6803F004
:100C1C000403002B09D0194BDB6943F00103174A7D
:100C2C00D3617B6843F004037B60134BDB6903F0F7
:100C3C000103002B0BD0114BDB6943F004030F4A6B
:100C4C00D3610D4BDB690C4A23F00103D3617B6844
:100C5C0040F20112934206D1074BDB69064A23F09E
:100C6C000103D36102E0044A7B68D36000BF0C37F8
:100C7C00BD4680BC704700BF0020024090000020A1
:100C8C0080B584B000AF786039600123FB7300231A
:100C9C00BB602F4B1B7E012B01D1022353E02C4B4D
:100CAC0001221A767B681B68022B16D14CF250304D
:100CBC00FFF750FF0346002B41D1012000F04CF808
:100CCC004CF25030FFF746FF0346FB73214B1B6978
:100CDC00204A23F00403136131E04CF25030FFF74B
:100CEC0039FF0346002B2AD13B684FF0FF321A60C4
:100CFC007B689B68BB6019E0B86800F049F84CF25F
:100D0C005030FFF727FF0346FB73124B1B69114A48
:100D1C0023F002031361FB7B002B03D03B68BA6802
:100D2C001A600CE0BB6803F58063BB607B68DB6812
:100D3C009A027B689B681344BA689A42DCD3044BD2
:100D4C0000221A76FB7B18461037BD4680BD00BFCB
:100D5C00900000200020024080B483B000AF786087
:100D6C00094B0022DA61094B1B69084A43F0040362
:100D7C001361064B1B69054A43F04003136100BF26
:100D8C000C37BD4680BC704790000020002002400C
:100D9C0080B483B000AF78600B4B0022DA610B4B50
:100DAC001B690A4A43F002031361084A7B685361CA
:100DBC00064B1B69054A43F04003136100BF0C3717
:100DCC00BD4680BC704700BF900000200020024050
:100DDC0080B48BB000AF7860396000237B62002355
:100DEC003B6269E101227B6A02FA03F3FB613B6817
:100DFC001B68FA691340BB61BA69FB699A4240F0FF
:100E0C0058813B685B689A4A93425ED0984A9342F9
:100E1C0075D8984A934258D0964A93426FD8964ABE
:100E2C00934252D0944A934269D8944A93424CD0FC
:100E3C00924A934263D8924A934246D0904A934244
:100E4C005DD8122B2AD8122B59D801A252F823F0B4
:100E5C00D70E0008B10E0008C30E0008050F0008DD
:100E6C000B0F00080B0F00080B0F00080B0F0008EE
:100E7C000B0F00080B0F00080B0F00080B0F0008DE
:100E8C000B0F00080B0F00080B0F00080B0F0008CE
:100E9C000B0F0008B90E0008CD0E0008794A9342DA
:100EAC0013D02CE03B68DB683B6229E03B68DB68D5
:100EBC0004333B6224E03B68DB6808333B621FE091
:100ECC003B68DB680C333B621AE03B689B68002B89
:100EDC0002D104233B6213E03B689B68012B05D1D4
:100EEC0008233B627B68FA691A6109E008233B62BC
:100EFC007B68FA695A6103E000233B6200E000BFA3
:100F0C00BB69FF2B01D87B6801E07B6804337B61F4
:100F1C00BB69FF2B02D87B6A9B0002E07B6A083B13
:100F2C009B003B617B691A680F213B6901FA03F353
:100F3C00DB431A40396A3B6901FA03F31A437B69B4
:100F4C001A603B685B6803F08053002B00F0B180A3
:100F5C004D4B9B694C4A43F0010393614A4B9B698F
:100F6C0003F00103BB60BB68484A7B6A9B080233F1
:100F7C0052F82330FB607B6A03F003039B000F22C3
:100F8C0002FA03F3DB43FA681340FB607B68404AC8
:100F9C00934213D07B683F4A93420DD07B683E4A04
:100FAC00934207D07B683D4A934201D1032306E06C
:100FBC00042304E0022302E0012300E000237A6A08
:100FCC0002F0030292009340FA681343FB602F492E
:100FDC007B6A9B080233FA6841F823203B685B6804
:100FEC0003F48013002B06D02D4B9A682C49BB6957
:100FFC0013438B6006E02A4B9A68BB69DB43284994
:10100C0013408B603B685B6803F40013002B06D025
:10101C00234BDA682249BB691343CB6006E0204BB3
:10102C00DA68BB69DB431E491340CB603B685B68E5
:10103C0003F40033002B06D0194B5A681849BB69CE
:10104C0013434B6006E0164B5A68BB69DB431449EB
:10105C0013404B603B685B6803F48033002B21D05A
:10106C000F4B1A680E49BB6913430B6021E000BF9C
:10107C00000032100000311000002210000021107E
:10108C00000012100000111000100240000001407E
:10109C0000080140000C0140001001400014014008
:1010AC00000401400B4B1A68BB69DB430949134030
:1010BC000B607B6A01337B623B681A687B6A22FA9D
:1010CC0003F3002B7FF48EAE00BF00BF2C37BD4660
:1010DC0080BC70470004014080B485B000AF7860DC
:1010EC000B467B807B689A687B881340002B02D070
:1010FC000123FB7301E00023FB73FB7B18461437C1
:10110C00BD4680BC704780B483B000AF78600B469E
:10111C007B8013467B707B78002B03D07A887B68AE
:10112C001A6103E07B881A047B681A6100BF0C37D4
:10113C00BD4680BC704780B485B000AF78600B466C
:10114C007B807B68DB68FB607A88FB6813401A0441
:10115C00FB68D9437B880B401A437B681A6100BF3C
:10116C001437BD4680BC704780B586B000AF786040
:10117C007B68002B01D1012372E27B681B6803F0B2
:10118C000103002B00F08780924B5B6803F00C038B
:10119C00042B0CD08F4B5B6803F00C03082B12D183
:1011AC008C4B5B6803F48033B3F5803F0BD1894BD8
:1011BC001B6803F40033002B6CD07B685B68002B3E
:1011CC0068D101234CE27B685B68B3F5803F06D1A4
:1011DC00804B1B687F4A43F4803313602EE07B689E
:1011EC005B68002B0CD17B4B1B687A4A23F4803351
:1011FC001360784B1B68774A23F4802313601DE03F
:10120C007B685B68B3F5A02F0CD1724B1B68714ADD
:10121C0043F4802313606F4B1B686E4A43F4803396
:10122C0013600BE06B4B1B686A4A23F4803313602A
:10123C00684B1B68674A23F4802313607B685B68E8
:10124C00002B13D0FFF788FA386108E0FFF784FA17
:10125C0002463B69D31A642B01D9032300E25D4B90
:10126C001B6803F40033002BF0D014E0FFF774FA82
:10127C00386108E0FFF770FA02463B69D31A642B19
:10128C0001D90323ECE1534B1B6803F40033002B0F
:10129C00F0D100E000BF7B681B6803F00203002B59
:1012AC0063D04C4B5B6803F00C03002B0BD0494B09
:1012BC005B6803F00C03082B1CD1464B5B6803F4F2
:1012CC008033002B16D1434B1B6803F00203002B19
:1012DC0005D07B681B69012B01D00123C0E13D4B7C
:1012EC001B6823F0F8027B685B69DB003949134308
:1012FC000B603AE07B681B69002B20D0364B012237
:10130C001A60FFF729FA386108E0FFF725FA024660
:10131C003B69D31A022B01D90323A1E12D4B1B6886
:10132C0003F00203002BF0D02A4B1B6823F0F802C9
:10133C007B685B69DB00274913430B6015E0264B88
:10134C0000221A60FFF708FA386108E0FFF704FA88
:10135C0002463B69D31A022B01D9032380E11D4BB2
:10136C001B6803F00203002BF0D17B681B6803F0B1
:10137C000803002B3AD07B689B69002B19D0174BC4
:10138C0001221A60FFF7E8F9386108E0FFF7E4F989
:10139C0002463B69D31A022B01D9032360E10D4BA2
:1013AC005B6A03F00203002BF0D0012000F09CFAE2
:1013BC001CE00A4B00221A60FFF7CEF938610FE0EF
:1013CC00FFF7CAF902463B69D31A022B08D903234B
:1013DC0046E100BF0010024000004242800442423D
:1013EC00924B5B6A03F00203002BE9D17B681B680C
:1013FC0003F00403002B00F0A6800023FB758B4B3D
:10140C00DB6903F08053002B0DD1884BDB69874AD5
:10141C0043F08053D361854BDB6903F08053BB6091
:10142C00BB680123FB75824B1B6803F48073002B94
:10143C0018D17F4B1B687E4A43F480731360FFF70F
:10144C008BF9386108E0FFF787F902463B69D31A3C
:10145C00642B01D9032303E1754B1B6803F48073E0
:10146C00002BF0D07B68DB68012B06D16F4B1B6A1D
:10147C006E4A43F0010313622DE07B68DB68002B9E
:10148C000CD16A4B1B6A694A23F001031362674B48
:10149C001B6A664A23F0040313621CE07B68DB685A
:1014AC00052B0CD1614B1B6A604A43F00403136299
:1014BC005E4B1B6A5D4A43F0010313620BE05B4B0E
:1014CC001B6A5A4A23F001031362584B1B6A574A92
:1014DC0023F0040313627B68DB68002B15D0FFF745
:1014EC003BF938610AE0FFF737F902463B69D31A3A
:1014FC0041F28832934201D90323B1E04B4B1B6A72
:10150C0003F00203002BEED014E0FFF725F938614D
:10151C000AE0FFF721F902463B69D31A41F28832FF
:10152C00934201D903239BE0404B1B6A03F0020357
:10153C00002BEED1FB7D012B05D13C4BDB693B4AEB
:10154C0023F08053D3617B68DB69002B00F087802C
:10155C00364B5B6803F00C03082B61D07B68DB69AE
:10156C00022B46D1334B00221A60FFF7F5F8386195
:10157C0008E0FFF7F1F802463B69D31A022B01D9B8
:10158C0003236DE0294B1B6803F00073002BF0D193
:10159C007B681B6AB3F5803F08D1244B5B6823F44E
:1015AC0000327B689B68214913434B601F4B5B687F
:1015BC0023F474127B68196A7B685B6A0B431B49C2
:1015CC0013434B601B4B01221A60FFF7C5F83861BF
:1015DC0008E0FFF7C1F802463B69D31A022B01D988
:1015EC0003233DE0114B1B6803F00073002BF0D07C
:1015FC0035E0104B00221A60FFF7AEF8386108E0B6
:10160C00FFF7AAF802463B69D31A022B01D9032330
:10161C0026E0064B1B6803F00073002BF0D11EE094
:10162C007B68DB69012B07D1012319E00010024014
:10163C0000700040600042420B4B5B68FB60FB6833
:10164C0003F480327B681B6A9A4206D1FB6803F470
:10165C0070127B685B6A9A4201D0012300E0002380
:10166C0018461837BD4680BD0010024080B584B0C6
:10167C0000AF786039607B68002B01D10123D0E08A
:10168C006A4B1B6803F007033A689A4210D9674B00
:10169C001B6823F0070265493B6813430B60634BDF
:1016AC001B6803F007033A689A4201D00123B8E0A3
:1016BC007B681B6803F00203002B20D07B681B683F
:1016CC0003F00403002B05D0594B5B68584A43F4D4
:1016DC00E06353607B681B6803F00803002B05D0A4
:1016EC00534B5B68524A43F460535360504B5B68F6
:1016FC0023F0F0027B689B684D4913434B607B6879
:10170C001B6803F00103002B40D07B685B68012B46
:10171C0007D1474B1B6803F40033002B15D1012371
:10172C007FE07B685B68022B07D1414B1B6803F0A1
:10173C000073002B09D1012373E03D4B1B6803F0B0
:10174C000203002B01D101236BE0394B5B6823F0C2
:10175C0003027B685B68364913434B60FEF7FCFF62
:10176C00F8600AE0FEF7F8FF0246FB68D31A41F274
:10177C008832934201D9032353E02D4B5B6803F06D
:10178C000C027B685B689B009A42EBD1274B1B6871
:10179C0003F007033A689A4210D2244B1B6823F0DB
:1017AC00070222493B6813430B60204B1B6803F074
:1017BC0007033A689A4201D0012332E07B681B6828
:1017CC0003F00403002B08D0194B5B6823F4E06290
:1017DC007B68DB68164913434B607B681B6803F01E
:1017EC000803002B09D0124B5B6823F460527B6812
:1017FC001B69DB000E4913434B6000F021F80246D5
:10180C000B4B5B681B0903F00F030A49CB5C22FAF4
:10181C0003F3094A1360094B1B681846FEF75AFF7D
:10182C00002318461037BD4680BD00BF0020024083
:10183C00001002400C1E00080400002008000020CC
:10184C0080B487B000AF0023FB600023BB60002393
:10185C007B6100237B6000233B611E4B5B68FB605C
:10186C00FB6803F00C03042B02D0082B03D027E0F9
:10187C00194B3B6127E0FB689B0C03F00F03174AE5
:10188C00D35C7B60FB6803F48033002B10D0114BCE
:10189C005B685B0C03F00103114AD35CBB607B6893
:1018AC000D4A03FB02F2BB68B2FBF3F37B6104E06D
:1018BC007B680C4A02FB03F37B617B693B6102E0B2
:1018CC00054B3B6100BF3B6918461C37BD4680BCCD
:1018DC00704700BF0010024000127A001C1E000866
:1018EC002C1E000800093D0080B485B000AF786064
:1018FC000A4B1B680A4AA2FB03235B0A7A6802FBA9
:10190C0003F3FB6000BFFB685A1EFA60002BF9D191
:10191C0000BF00BF1437BD4680BC704704000020D8
:10192C00D34D621080B582B000AF78607B68002B1D
:10193C0001D1012341E07B6893F83D30DBB2002BF1
:10194C0006D17B68002283F83C207868FEF726FEDF
:10195C007B68022283F83D207B681A687B6804331D
:10196C001946104600F094F97B68012283F8462052
:10197C007B68012283F83E207B68012283F83F209C
:10198C007B68012283F840207B68012283F8412088
:10199C007B68012283F842207B68012283F8432074
:1019AC007B68012283F844207B68012283F8452060
:1019BC007B68012283F83D20002318460837BD467A
:1019CC0080BD000080B485B000AF78607B6893F870
:1019DC003D30DBB2012B01D001233AE07B680222BF
:1019EC0083F83D207B681B68DA687B681B6842F0D3
:1019FC000102DA607B681B68184A93420ED07B6840
:101A0C001B68B3F1804F09D07B681B68144A934262
:101A1C0004D07B681B68134A934211D17B681B6806
:101A2C009B6803F00703FB60FB68062B10D07B68F8
:101A3C001B681A687B681B6842F001021A6007E099
:101A4C007B681B681A687B681B6842F001021A608D
:101A5C00002318461437BD4680BC7047002C01404B
:101A6C00000400400008004080B584B000AF7860EE
:101A7C007B681B68DB68FB607B681B681B69BB6051
:101A8C00BB6803F00203002B20D0FB6803F00203B9
:101A9C00002B1BD07B681B686FF002021A617B68FD
:101AAC0001221A777B681B689B6903F00303002BE8
:101ABC0003D0786800F0D1F805E0786800F0C4F83D
:101ACC00786800F0D3F87B6800221A77BB6803F0C3
:101ADC000403002B20D0FB6803F00403002B1BD065
:101AEC007B681B686FF004021A617B6802221A770C
:101AFC007B681B689B6903F44073002B03D07868E8
:101B0C0000F0ABF805E0786800F09EF8786800F01B
:101B1C00ADF87B6800221A77BB6803F00803002B32
:101B2C0020D0FB6803F00803002B1BD07B681B68DC
:101B3C006FF008021A617B6804221A777B681B68B5
:101B4C00DB6903F00303002B03D0786800F085F801
:101B5C0005E0786800F078F8786800F087F87B6822
:101B6C0000221A77BB6803F01003002B20D0FB680F
:101B7C0003F01003002B1BD07B681B686FF0100266
:101B8C001A617B6808221A777B681B68DB6903F48F
:101B9C004073002B03D0786800F05FF805E078689C
:101BAC0000F052F8786800F061F87B6800221A7730
:101BBC00BB6803F00103002B0CD0FB6803F001039E
:101BCC00002B07D07B681B686FF001021A617868E4
:101BDC00FEF764FBBB6803F08003002B0CD0FB68A2
:101BEC0003F08003002B07D07B681B686FF080022A
:101BFC001A61786800F0C3F8BB6803F04003002B4F
:101C0C000CD0FB6803F04003002B07D07B681B68EB
:101C1C006FF040021A61786800F031F8BB6803F08D
:101C2C002003002B0CD0FB6803F02003002B07D003
:101C3C007B681B686FF020021A61786800F096F8D8
:101C4C0000BF1037BD4680BD80B483B000AF786054
:101C5C0000BF0C37BD4680BC704780B483B000AF6A
:101C6C00786000BF0C37BD4680BC704780B483B031
:101C7C0000AF786000BF0C37BD4680BC704780B4A5
:101C8C0083B000AF786000BF0C37BD4680BC704796
:101C9C0080B485B000AF786039607B681B68FB60EE
:101CAC007B682F4A93420BD07B68B3F1804F07D0EF
:101CBC007B682C4A934203D07B682B4A934208D111
:101CCC00FB6823F07003FB603B685B68FA681343A6
:101CDC00FB607B68224A93420BD07B68B3F1804F48
:101CEC0007D07B681F4A934203D07B681E4A9342FD
:101CFC0008D1FB6823F44073FB603B68DB68FA682F
:101D0C001343FB60FB6823F080023B685B69134361
:101D1C00FB607B68FA681A603B689A687B68DA62D9
:101D2C003B681A687B689A627B680D4A934203D1C0
:101D3C003B681A697B681A637B6801225A617B686D
:101D4C001B6903F00103002B05D07B681B6923F092
:101D5C0001027B681A6100BF1437BD4680BC704716
:101D6C00002C0140000400400008004080B483B007
:101D7C0000AF786000BF0C37BD4680BC704780B4A4
:101D8C0083B000AF786000BF0C37BD4680BC704795
:101D9C0003460244934200D1704703F8011BF9E754
:101DAC0070B500260C4D0D4C641BA410A64209D135
:101DBC0000F01AF800260A4D0A4C641BA410A64227
:101DCC0005D170BD55F8043B98470136EEE755F840
:101DDC00043B98470136F2E7301E0008301E00081D
:101DEC00301E0008341E0008F8B500BFF8BC08BC53
:101DFC009E467047F8B500BFF8BC08BC9E467047BD
:101E0C00000000000000000001020304060708099E
:101E1C0002030405060708090A0B0C0D0E0F10101F
:041E2C0001020000AF
:041E30003101000874
:041E34000D01000894
:101E38000400000000127A001000000001000000F9
:040000050800066980
:00000001FF
